:020000040800F2
:10000000B8050020AD01000869240008E11F0008C0
:1000100065240008C1040008712C000800000000DD
:10002000000000000000000000000000FD240008A7
:10003000DF050008000000006B240008FF24000812
:10004000C7010008C7010008C7010008C701000870
:10005000C7010008C7010008C7010008C701000860
:10006000C7010008C7010008C7010008C701000850
:10007000C7010008C7010008C7010008C701000840
:10008000C7010008C7010008C70100080000000000
:10009000000000000000000000000000C701000890
:1000A000C7010008D9250008C7010008C7010008DA
:1000B000C7010008C7010008C7010008C701000800
:1000C000C7010008C7010008C7010008C7010008F0
:1000D000C7010008C7010008612C000800000000EB
:1000E000C7010008C7010008C701000800000000A0
:1000F000000000000000000000000000C701000830
:1001000000000000C7010008C7010008C70100087F
:1001100000000000000000000000000000000000DF
:10012000C5040008C7010008C7010008C70100088E
:10013000C7010008000000000000000000000000EF
:10014000000000000000000000000000C7010008DF
:10015000C7010008C7010008C7010008C70100085F
:10016000C7010008C70100080000000000000000EF
:10017000000000000000000000000000000000007F
:1001800000000000C701000800000000000000009F
:10019000C7010008C7010008DFF80CD000F07AF8AA
:1001A00000480047CD2C0008B805002006488047CD
:1001B00006480047FEE7FEE7FEE7FEE7FEE7FEE74C
:1001C000FEE7FEE7FEE7FEE7BD250008990100080F
:1001D0002DE9F05F0546002092469B46884606467C
:1001E000814640241BE0284641464746224600F00F
:1001F00041F853465A46C01A914110D31146184649
:10020000224600F028F82D1A67EB01084F462246D7
:100210000120002100F01FF817EB00094E41201EBD
:10022000A4F10104DFDC484631462A464346BDE8D6
:10023000F09FD2B201E000F8012B491EFBD27047BB
:100240000022F6E710B513460A4604461946FFF7A2
:10025000F0FF204610BD202A04DB203A00FA02F10C
:10026000002070479140C2F1200320FA03F31943A4
:1002700090407047202A04DB203A21FA02F0002146
:10028000704721FA02F3D040C2F1200291400843A6
:1002900019467047064C074D06E0E06840F0010340
:1002A00094E8070098471034AC42F6D3FFF778FF84
:1002B000602D0008802D000870B50546AC6B206CE1
:1002C00000F0500050BB206C40F4007020642068A7
:1002D000806800F04050E8B9207ED8B92068C06A34
:1002E00000F4700020B12068806800F4806088B954
:1002F0002068406820F0200021684860206C20F4CD
:1003000080702064206C00F4805018B9206C40F09C
:1003100001002064204600F037FA0BE0206C00F06A
:10032000100018B1204600F03CFA03E0A06BC16C4D
:100330002846884770BD70B50546AC6B40202064E8
:10034000606C40F004006064204600F02AFA70BD42
:1003500070B50446A56B284600F022FA70BD000077
:1003600055494A6822F440324A604A6843681A4351
:100370004A600268526822F4807203685A60026818
:100380005368026943EA022203685A6002685268AD
:1003900022F0407203685A600268526883681A4308
:1003A00003685A600268926822F4006203689A60E7
:1003B00002689268C3681A4303689A603F4B826A76
:1003C0009A4218D00268926822F0706203689A60BC
:1003D00002689268836A1A4303689A6002689268A6
:1003E00022F0405203689A6002689268C36A1A4316
:1003F00003689A600BE00268926822F070620368FA
:100400009A600268926822F0405203689A6002681B
:10041000926822F0020203689A6002689368027E82
:1004200043EA420203689A602022125CA2B1026889
:10043000526842F4006203685A600268526822F40B
:10044000604203685A6002685368426A521E43EA77
:10045000423203685A6005E00268526822F4006282
:1004600003685A600268D26A22F470020368DA6292
:100470000268D36A828B521E43EA02520368DA6230
:100480000268926822F4007203689A6002689368B6
:1004900090F8302043EA422203689A60026892682A
:1004A00022F4806203689A6002689368426943EAB2
:1004B000822203689A607047002301400100000F08
:1004C00000BFFEE710B5024800F0D8FA10BD0000EA
:1004D000D80000200146087810381823B0FBF3F24A
:1004E0000848805CC865032A05D908686FF30900CD
:1004F000001D886503E008686FF309008865886D52
:1005000070470000402D0008014600208A6A8B6970
:10051000CBB932B1012A0DD0022A03D0032A10D15F
:100520000EE000BFCB6A03F08073B3F1807F00D18F
:10053000012007E0CB6AB3F1C07F00D1012001E0C8
:1005400000E000BF34E08B69B3F5005F1AD132B12F
:10055000012A07D0022A03D0032A11D10AE000BFE2
:1005600001200EE0CB6A03F08073B3F1807F00D1ED
:10057000012006E0CB6AB3F1C07F00D1012000E08A
:1005800000BF15E032B1012A05D0022A04D0032AA7
:100590000CD103E000BF00BF012008E0CB6A03F0EC
:1005A0008073B3F1807F00D1012000E000BF00BF65
:1005B000704730B50468246824F4802405682C60F2
:1005C000046863608468402C04D10468A2600468F5
:1005D000E16003E00468A1600468E26030BD704738
:1005E0007047000038B502460020009000BF92F826
:1005F0003C00012801D1022038BD012082F83C00D6
:1006000000BF0868092816D91068C0680C780A3C31
:1006100004EB44050724AC40A0431468E0600C7868
:100620000A3C04EB44048868A0401468E468204352
:100630001468E06013E0106800690C7804EB44056E
:100640000724AC40A043146820610C7804EB4404F8
:100650008868A040146824692043146820614868B1
:10066000072817D21068406B0C79641E04EB8405D0
:100670001F24AC40A04314686063088880B20C79E2
:10068000641E04EB8404A0401468646B2043146867
:10069000606331E048680D2817D21068006B0C7950
:1006A000E41F04EB84051F24AC40A04314682063BE
:1006B000088880B20C79E41F04EB8404A04014681D
:1006C000246B20431468206316E01068C06A0C791C
:1006D0000D3C04EB84051F24AC40A0431468E06289
:1006E000088880B20C790D3C04EB8404A0401468A7
:1006F000E46A20431468E0621E4B1F4C1068A0425D
:100700000AD10868122807D1586820F40000586000
:10071000586840F480005860174C1068A04222D1FD
:10072000164C0868A04202D0086811281BD15868EE
:1007300020F480005860586840F4000058600F4C66
:100740000868A0420FD10E4800680E4CB0FBF4F0D0
:1007500000EB80004000009002E00098401E0090F6
:1007600000980028F9D100BF002082F83C0000BFAB
:1007700000BF41E7002301400020014012000010AB
:100780008C00002040420F0003490968034A1160B1
:1007900001494968516070477800002070000020CE
:1007A0007047704770B5044600250CB9012070BD34
:1007B0001549A06A884200D000BF206C30B920469D
:1007C00000F024F80020606484F83C00206C00F005
:1007D000100088B9206C20F4885040F0020020649A
:1007E0002046FFF7BDFD00206064206C20F0020071
:1007F00040F00100206400E0012500BF002084F8E3
:100800003C0000BF2846D2E70100000F10B586B0BB
:100810000446142101A8FFF713FD354920688842DA
:1008200063D100BF002000903248006840F480701F
:10083000304908600846006800F48070009000BFEE
:1008400000BF00BF002000902A481438006840F024
:1008500004002849143908600846006800F00400C4
:10086000009000BF00BF00BF002000900846006855
:1008700040F0010008600846006800F001000090A8
:1008800000BF00BF012001900320029000200390D0
:1008900001A9194800F0D2FA4020019003200290EB
:1008A0000020039001A9154800F0C8FA1448154922
:1008B000086000204860002112488160C1604FF448
:1008C0008061016189004161890081618911C16193
:1008D00000210162416200F0F1F908B1FFF780FEEA
:1008E00000BF0848A063846300BF06B010BD0000CD
:1008F000002001404438024000080240000002404D
:1009000010640240D8000020F8B504460D46164693
:100910000020009000BF94F83C00012801D1022083
:10092000F8BD012084F83C0000BF2068806800F01A
:100930000100A0B92068806840F00100216888604B
:100940003D4800683D49B0FBF1F000EB40000090ED
:1009500002E00098401E009000980028F9D120681D
:10096000806800F00100002864D0206C40F2016132
:10097000884340F4807020642068406800F4806000
:1009800028B1206C20F4005040F480502064206C8A
:1009900000F48050B0F5805F04D1606C20F0060058
:1009A000606401E00020606400BF002084F83C0027
:1009B00000BF234F2348A16BC8632348A16B086481
:1009C0002248A16BC8646FF022002168086020688B
:1009D000406840F08060216848602068806840F48A
:1009E000807021688860226802F14C0133462A46F3
:1009F000A06B00F0D9F9786800F01F0058B92068A2
:100A0000806800F0405028B92068806840F080403D
:100A1000216888600EE00E49206888420AD120686B
:100A2000806800F0405028B92068806840F080401D
:100A300021688860002073E78C00002040420F008E
:100A400000230140B90200085103000837030008E1
:100A500000200140014691F83500022803D0802093
:100A6000486501207047052081F835000868006856
:100A700020F001000A6810600020F3E7F8B5044692
:100A8000002000908C4800684FF41651B0FBF1F73D
:100A9000A56D2E6894F85C1008208840304098B10D
:100AA0002068006800F0040070B12068006820F041
:100AB00004002168086094F85C1008208840A86051
:100AC000606D40F00100606594F85C100120884082
:100AD000304068B12068406900F0800040B194F86F
:100AE0005C1001208840A860606D40F002006065E5
:100AF00094F85C1004208840304068B12068006899
:100B000000F0020040B194F85C1004208840A86016
:100B1000606D40F00400606594F85C10102088401F
:100B2000304078B32068006800F0080050B394F8B3
:100B30005C1010208840A8602068006800F48020C5
:100B400080B12068006800F4002028B9206CC8B18A
:100B50002046216C884715E0A06C98B12046A16C16
:100B600088470FE02068006800F4807028B920688A
:100B7000006820F0080021680860206C10B1204651
:100B8000216C884794F85C10202088403040002871
:100B900065D02068006800F0100000285FD094F84D
:100BA0005C1020208840A86094F83500052828D1E2
:100BB0002068006820F016002168086020684069FD
:100BC00020F0800021684861206C08B9A06C28B131
:100BD0002068006820F008002168086094F85C1024
:100BE0003F208840A86000BF002084F8340000BF88
:100BF000012084F83500206D10B12046216D884712
:100C0000F8BD2068006800F4802080B1206800688A
:100C100000F4002028B9606C10B12046616C884750
:100C20001DE0E06BD8B12046E16B884717E02068F3
:100C3000006800F4807068B92068006820F0100037
:100C40002168086000BF002084F8340000BF012044
:100C500084F83500E06B10B12046E16B8847606D89
:100C600038B3606D00F00100F0B1052084F8350064
:100C70002068006820F001002168086000BF00982B
:100C8000401C0090B84200D905E02068006800F0E0
:100C900001000028F3D100BF00BF002084F8340019
:100CA00000BF012084F83500E06C10B12046E16CF3
:100CB000884700BFA4E700008C0000202DE9F04128
:100CC0000446002500F0BCF9074614B90120BDE830
:100CD000F081606A00B100BF00BF002084F83400DA
:100CE00000BF022084F835002068006820F0010071
:100CF000216808600AE000F0A3F9C01B052805D9A7
:100D000020206065032084F83500E0E72068006853
:100D100000F001000028EED1206805682148054058
:100D2000D4E901010843E168084321690843616986
:100D30000843A1690843E1690843216A0843054360
:100D4000606A042803D1D4E90B01084305432068F5
:100D500005602068456925F00705606A0543606AFB
:100D600004280DD1A06A0543E06A48B12046FFF788
:100D7000CBFB28B140206065012084F83500A6E750
:100D8000206845612046FFF7A5FB064694F85C10F5
:100D90003F208840B06000206065012084F8350065
:100DA000002094E73F8010F02DE9F04704460D46FF
:100DB00016461F464FF00008D4F8589000BF94F82C
:100DC0003400012802D10220BDE8F087012084F818
:100DD000340000BF94F83500012825D1022084F8A2
:100DE0003500002060653B46324629462046FFF725
:100DF000E0FB94F85C103F208840C9F808002068A8
:100E0000006840F0160021680860206C28B1206856
:100E1000006840F00800216808602068006840F021
:100E200001002168086006E000BF002084F834005B
:100E300000BF4FF002084046C6E70000F8B5034681
:100E40000A460025002400200021CDE0012606FAF4
:100E500001F5166806EA0504AC4273D15668012E06
:100E600008D05668022E05D05668112E02D056685A
:100E7000122E13D198684F000326BE40B0434F0096
:100E8000D668BE4030439860586801268E40B04313
:100E90001679C6F300168E4030435860D8684F006C
:100EA0000326BE40B0434F009668BE403043D86032
:100EB0005668022E02D05668122E13D1CF0803F1C5
:100EC000200656F827004E07F70E0F26BE40B04307
:100ED0004F07FF0E1669BE403043CF0803F12006CE
:100EE00046F8270018684F000326BE40B043167925
:100EF00006F003064F00BE4030431860566806F007
:100F00008056B6F1805F6ED100BF00260096384E45
:100F1000366846F48046364F3E603E46366806F4F4
:100F20008046009600BF00BF324E8F0856F827005B
:100F30008E07370F0F26BE40B0432F4EB34202D16B
:100F4000002615E04FE02D4EB34201D101260FE0FF
:100F50002B4EB34201D102260AE02A4EB34201D100
:100F6000032605E0284EB34201D1042600E00726FF
:100F70008F073F0FBE4030431E4E8F0846F82700B4
:100F8000224E3068A043566806F48036B6F5803F9E
:100F900000D120431D4E3060361D3068A043566896
:100FA00006F40036B6F5003F00D12043174E361D3B
:100FB0003060361D3068A043566806F48016B6F5DA
:100FC000801F00D12043114E08363060361D306836
:100FD000A043566806F40016B6F5001F00D1204362
:100FE0000A4E0C363060491C1029FFF42FAFF8BDB3
:100FF000443802400838014000000240000402402A
:1010000000080240000C024000100240003C014079
:10101000024613690B400BB1012000E0002070472D
:1010200042690A408A4202D10A04826100E0816179
:1010300070470AB1816101E00B04836170470000D1
:1010400001480068704700008000002003480068E5
:10105000034909780844014908607047800000206E
:101060008800002010B50D48006840F400700B495E
:1010700008600846006840F4806008600846006820
:1010800040F480700860032000F0A2F8002000F017
:1010900007F800F02BF8002010BD0000003C0240D3
:1010A00070B504460E4800784FF47A71B1FBF0F049
:1010B0000C490968B1FBF0F5284600F021FC08B1A5
:1010C000012070BD102C07D200222146501E00F0D6
:1010D00041F80548046001E00120F2E70020F0E754
:1010E000880000208C0000208400002008B500BF8C
:1010F000002000900E48006840F480400C490860D1
:101100000846006800F48040009000BF00BF00BFA8
:1011100000200090081F006840F08050091F086000
:101120000846006800F08050009000BF00BF08BD76
:101130004438024001460846002809DB00F01F033E
:1011400001229A4043099B0003F1E023C3F80021E8
:1011500000BF70472DE9F05F80460D461646002718
:1011600001F088FD074639462A46334601F007005C
:10117000C0F1070ABAF1040F02D94FF0040A01E0E6
:10118000C0F1070AD14600F1040ABAF1070F02D2F2
:101190004FF0000A01E0A0F1030AD4464FF0010A23
:1011A0000AFA09FAAAF1010A0AEA020A0AFA0CFA88
:1011B0004FF0010B0BFA0CFBABF1010B0BEA030B2D
:1011C0004AEA0B042146404601F05CFDBDE8F09F71
:1011D00000BF00F00702064B19684FF6FF031940E5
:1011E000044B0B4343EA0221014B196000BF7047D7
:1011F0000CED00E00000FA0570B504460D460CB990
:10120000012070BD5848006800F00F00A84209D2C4
:1012100055490D700846006800F00F00A84201D043
:101220000120EEE7207800F0020002281DD120788E
:1012300000F00400042805D14C48006840F4E05058
:101240004A490860207800F00800082805D147487E
:10125000006840F46040454908604448006820F058
:10126000F000A168084341490860207800F00100BF
:10127000A8B36068012807D13C4808380068C0F36B
:101280004040B8B90120BCE76068022802D060681D
:10129000032807D1354808380068C0F3406048B9D2
:1012A0000120AEE7314808380068C0F3400008B9B3
:1012B0000120A6E72D48006820F00300616808437C
:1012C0002A490860FFF7BCFE064609E0FFF7B8FEB2
:1012D000801B41F28831884202D9032091E707E060
:1012E0002248006800F00C006168B0EB810FEDD17E
:1012F0001D48006800F00F00A84209D91A490D7076
:101300000846006800F00F00A84201D0012078E7ED
:10131000207800F00400042807D11448006820F465
:10132000E050E168084311490860207800F00800A7
:10133000082808D10D48006820F46040216940EA7F
:10134000C1000A49086000F03FF808490968C1F384
:101350000311074A515CC840064908600648006806
:10136000FFF79EFE00204CE7003C02400838024098
:10137000482D00088C0000208400002001480068EF
:10138000704700008C00002000B5FFF7F7FF04490C
:101390000968C1F38221034A515CC84000BD0000C6
:1013A00008380240582D000800B5FFF7E7FF044950
:1013B0000968C1F34231034A515CC84000BD0000D6
:1013C00008380240582D00082DE9F0470024002578
:1013D0000026A1462548006800F00C0020B1042832
:1013E00005D008283AD105E0DFF8849039E0DFF82D
:1013F000849036E01D48001F006800F03F041B4841
:10140000001F006800F4800078B11A481749091FCE
:101410000968C1F38811A0FB017001462246002330
:101420003846FEF7D5FE05460EE011480F49091F64
:101430000968C1F38811A0FB017001462246002310
:101440003846FEF7C5FE05460848001F0068C0F391
:101450000140401C4600B5FBF6F902E0DFF81090B1
:1014600000BF00BF4846BDE8F087000008380240D2
:101470000024F40040787D01F8B504460CB9012041
:10148000F8BD207800F00100002874D0F948006809
:1014900000F00C0004280DD0F648006800F00C00A5
:1014A000082813D1F348001F006800F48000B0F54D
:1014B000800F0BD1EF4808380068C0F34040002887
:1014C00059D06068002856D10120D9E700BF606874
:1014D000B0F5803F08D1E7480838006840F4803014
:1014E000E449083908601EE06068B0F5A02F0DD10E
:1014F000E0480838006840F48020DE490839086078
:101500000846006840F4803008600CE0D94808388C
:10151000006820F48030D749083908600846006820
:1015200020F48020086000BF606890B1FFF788FD5C
:10153000054606E0FFF784FD401B642801D903201F
:101540009EE7CC4808380068C0F340400028F1D03E
:1015500011E0FFF775FD054606E0FFF771FD401B42
:10156000642801D903208BE7C24808380068C0F31B
:1015700040400028F1D1207800F0020002285FD11D
:10158000BC48006800F00C0058B1BA48006800F090
:101590000C0008281CD1B748001F006800F4800028
:1015A000B0B9B44808380068C0F3400020B1E06822
:1015B000012801D0012063E7AE480838006820F018
:1015C000F800216940EAC100AA490839086037E0FB
:1015D000E06800B30120A8490860FFF731FD054627
:1015E00006E0FFF72DFD401B022801D9032047E745
:1015F000A04808380068C0F340000028F1D09D489A
:101600000838006820F0F800216940EAC1009949D3
:101610000839086014E0002097490860FFF710FDC2
:10162000054606E0FFF70CFD401B022801D9032008
:1016300026E7904808380068C0F340000028F1D140
:10164000207800F0080008282CD16069A8B101209A
:101650008A490860FFF7F4FC054606E0FFF7F0FC56
:10166000401B022801D903200AE782486C30006839
:10167000C0F340000028F1D014E000207F4908604A
:10168000FFF7DEFC054606E0FFF7DAFC401B022808
:1016900001D90320F4E677486C300068C0F34000BD
:1016A0000028F1D1207800F00400042870D1002730
:1016B00070483830006800F0805090B900BF0020BA
:1016C00000906C483830006840F0805069493831EB
:1016D00008600846006800F08050009000BF00BF1E
:1016E00001276748006800F48070B0B9644800685A
:1016F00040F4807062490860FFF7A2FC054606E0EE
:10170000FFF79EFC401B022801D90320B8E65C4885
:10171000006800F480700028F2D000BFA0680128A3
:1017200008D154486830006840F0010051496831E0
:1017300008601DE0A06805280DD14E48683000689B
:1017400040F004004B49683108600846006840F0EA
:10175000010008600CE047486830006820F0010094
:101760004449683108600846006820F004000860B9
:1017700000BFA068A8B1FFF763FC054609E0FFF7CA
:101780005FFC401B41F28831884202D9032077E692
:1017900026E0384868300068C0F340000028EED0EA
:1017A00013E0FFF74DFC054608E0FFF749FC401B3E
:1017B00041F28831884201D9032061E62D48683022
:1017C0000068C0F340000028EFD1012F07D129485D
:1017D0003830006820F0805026493831086000BF5A
:1017E000A069002845D02348006800F00C000828B4
:1017F0005DD0A069022845D100201F490866FFF787
:101800001FFC054606E0FFF71BFC401B022801D920
:10181000032035E6174808380068C0F34060002808
:10182000F1D1D4E907010843616A40EA811101223C
:10183000A06AC2EB500041EA00412C20005D41EA61
:1018400000600C49091F086001200B490866FFF77A
:10185000F7FB054606E0FFF7F3FB401B022801D922
:1018600003200DE6034808380068C0F340600028F4
:10187000F1D03FE00838024000004742800E474266
:101880000070004000201C490866FFF7D9FB0546A0
:1018900006E0FFF7D5FB401B022801D90320EFE546
:1018A00016480068C0F340600028F2D122E0A06929
:1018B000012800D1E4E511480830066806F48001EB
:1018C000E069814214D106F03F01206A81420FD1C4
:1018D00047F6C0703040616A884209D106F4403151
:1018E000A06A814204D106F07061E06A814201D0B1
:1018F0000120C5E50020C3E5000047420038024052
:1019000070B504462546681EB0F1807F01D30120E2
:101910000FE0681E4FF0E02148610F214FF0FF30CB
:1019200001F0B0F900204FF0E02188610720086144
:10193000002070BD7047704730B502460B4600BFAF
:1019400092F83C00012801D1022030BD012082F82C
:101950003C0000BF022082F83D0010684468106817
:10196000816824F070041868044310684460144DC2
:101970001068A84213D01068B0F1804F0FD0114DFD
:101980001068A8420BD0104D1068A84207D00F4D28
:101990001068A84203D00E4D1068A84205D121F06E
:1019A00080015868014310688160012082F83D0081
:1019B00000BF002082F83C0000BF00BFC5E7000068
:1019C000000001400004004000080040000C0040FE
:1019D0000040014010B504460CB9012010BD94F838
:1019E0003D0028B9002084F83C00204600F00CF8A7
:1019F000022084F83D00211D206800F0FFFD012039
:101A000084F83D000020E9E738B504460E49206817
:101A1000884217D100BF002000900C48006840F0B9
:101A200001000A4908600846006800F001000090C3
:101A300000BF00BF002201211920FFF78BFB1920F6
:101A4000FFF778FB38BD0000000001404438024039
:101A500001460868C06840F001000B68D86008685B
:101A6000806800F00702062A05D00868006840F088
:101A700001000B681860002070472DE9F041044612
:101A80000D4600BF94F83C00012802D10220BDE8B9
:101A9000F081012084F83C0000BF022084F83D0062
:101AA0002068866826F0770626F47F4620688660E0
:101AB0002868502833D00CDC202850D004DC0028C3
:101AC0004BD0102851D149E0302849D040284CD182
:101AD00039E060282DD0702807D0B0F5805F03D0A2
:101AE000B0F5005F41D10DE040E0D5E902136A682E
:101AF000206800F0D5FD2068866846F077062068EB
:101B0000866033E0D5E902136A68206800F0C8FDFA
:101B10002068806840F480402168886026E0EA6898
:101B20006968206800F0D0FD5021206800F0C3FDF6
:101B30001CE0EA686968206800F0D9FD602120682F
:101B400000F0B9FD12E0EA686968206800F0BCFDA9
:101B50004021206800F0AFFD08E000BF00BF00BFDB
:101B60002968206800F0A7FD00E000BF00BF012049
:101B700084F83D0000BF002084F83C0000BF00BF97
:101B800085E7704710B5044620680069C0F340003F
:101B9000D8B12068C068C0F34000B0B16FF0020057
:101BA00021680861012020772068806900F0030027
:101BB00018B12046FFF7E5FF05E0204600F0ADF83C
:101BC000204600F0ABF80020207720680069C0F3C1
:101BD0008000D8B12068C068C0F38000B0B16FF059
:101BE000040021680861022020772068806900F4E1
:101BF000407018B12046FFF7C4FF05E0204600F012
:101C00008CF8204600F08AF80020207720680069D0
:101C1000C0F3C000D8B12068C068C0F3C000B0B144
:101C20006FF0080021680861042020772068C069EF
:101C300000F0030018B12046FFF7A3FF05E020469F
:101C400000F06BF8204600F069F80020207720684B
:101C50000069C0F30010D8B12068C068C0F300105C
:101C6000B0B16FF01000216808610820207720686B
:101C7000C06900F4407018B12046FFF782FF05E00C
:101C8000204600F04AF8204600F048F8002020776F
:101C90002068006900F0010058B12068C06800F0B9
:101CA000010030B16FF0010021680861204600F0AA
:101CB00036F820680069C0F3C01058B12068C068C9
:101CC000C0F3C01030B16FF0800021680861204679
:101CD000FFF730FE20680069C0F3801058B120681B
:101CE000C068C0F3801030B16FF040002168086117
:101CF000204600F015F820680069C0F3401058B184
:101D00002068C068C0F3401030B16FF02000216837
:101D100008612046FFF70FFE10BD704770477047FF
:101D2000704770472DE9F047044620680568206831
:101D3000C668206847694FF00008C14605F00F08E3
:101D4000B8F1000F0AD105F0200038B106F02000EC
:101D500020B1204600F009FDBDE8F087B8F1000F82
:101D600072D007F0010018B906F4907000286BD00B
:101D700005F0010030B106F4807018B1E06B40F05E
:101D80000100E06305F0040030B107F0010018B174
:101D9000E06B40F00200E06305F0020030B107F0B4
:101DA000010018B1E06B40F00400E06305F00800AA
:101DB00048B106F0200010B907F0010018B1E06B3F
:101DC00040F00800E063E06B70B305F0200028B13C
:101DD00006F0200010B1204600F0C7FC20684069E2
:101DE000C0F38019E06B00F0080010B9B9F1000FE2
:101DF00023D0204600F099FC2068406900F04000A4
:101E0000402816D12068406920F0400021684861D0
:101E1000606B50B11748616B0865606BFEF71AFE86
:101E200010B1606B016D88470CE02046FFF779FF29
:101E300008E02046FFF775FF04E02046FFF771FF3A
:101E40000020E06388E7FFE705F0800030B106F08E
:101E5000800018B1204600F0CFFE7DE705F040007D
:101E600030B106F0400018B1204600F06EFC73E778
:101E700000BF71E71727000810B504460CB9012010
:101E800010BDA06900B100E000BF94F8390028B986
:101E9000002084F83800204600F028F8242084F838
:101EA00039002068C06820F400502168C8602046CE
:101EB00000F0AEFC2068006920F4904021680861C1
:101EC0002068406920F02A00216848612068C068C5
:101ED00040F400502168C8600020E063202084F8AE
:101EE000390084F83A000020CAE7000010B586B037
:101EF0000446142101A8FEF7A3F91F49206888426F
:101F000037D100BF002000901C48006840F400302A
:101F10001A4908600846006800F40030009000BFCD
:101F200000BF00BF0020009014481038006840F047
:101F300001001249103908600846006800F00100ED
:101F4000009000BF00BF0C200190022002900020F2
:101F50000390032004900720059001A90848FEF78C
:101F60006DFF002211462620FFF7F4F82620FFF728
:101F7000E1F806B010BD00000044004040380240C7
:101F800000000240704710B5034693F8390020283E
:101F900023D101B10AB9012010BD00BF93F8380068
:101FA000012801D10220F7E7012083F8380000BFA3
:101FB00019629A84DA840020D863212083F83900DA
:101FC00000BF002083F8380000BF1868C06840F0E8
:101FD00080001C68E0600020DEE70220DCE770473C
:101FE00000BFFEE71FB50020009001900290039013
:101FF0001B481C4908604FF4803048604102194872
:102000008160012101610176002180F82010C16208
:10201000154981620021C1600221C161012180F85E
:1020200030104161FEF7BEFB08B1FEF7D9FA062079
:102030000090012001900720029069460948FEF7B0
:10204000D1FA08B1FEF7CCFA0A20009002200190E4
:1020500069460448FEF7C6FA08B1FEF7C1FA1FBD8B
:1020600000200140900000200100000F08B500BFD3
:10207000002000900A48006840F480000849086089
:102080000846006800F48000009000BF00BF0022F6
:1020900011463820FFF75EF83820FFF74BF808BDEF
:1020A0003038024000B587B0142102A8FEF7C8F806
:1020B00000BF002001901C48006840F004001A494D
:1020C00008600846006800F00400019000BF00BFEF
:1020D00000BF002001900846006840F00100086041
:1020E0000846006800F00100019000BF00BF002218
:1020F00020210E48FEF79DFF41F6935002900020EC
:102100000390049002A90948FEF798FE202002904F
:102110000120039000200490059002A90348FEF7D7
:102120008DFE07B000BD00003038024000000240C4
:1021300000B587B0002003900490059006900190B0
:102140000290154815490860632048600021134833
:10215000816040F2E731C16000210161416181612C
:10216000FFF738FC08B1FEF73BFA4FF480500390BC
:1021700003A90A48FFF781FC08B1FEF731FA0020F5
:102180000190029001A90548FFF7D6FB08B1FEF7C0
:1021900027FA07B000BD0000000001403801002010
:1021A00010B50B480B4908604FF4E130486000213E
:1021B00008488160C16001610C2141610021816199
:1021C000C161FFF759FE08B1FEF70AFA10BD000021
:1021D000004400407801002010B58948006878B1BB
:1021E000884800688849096808448849096888421D
:1021F00006D28648006883490860854800F096FD4D
:102200008448006878B1844800687F4909680844B8
:102210007E490968884206D27C4800687E49086089
:102220007E4800F083FD7E48006878B17D480068F4
:1022300075490968084475490968884206D2734897
:10224000006878490860784800F070FD77480068B9
:10225000322852D9764800686B49096808446B49AE
:102260000968884249D27148006878280AD96748C5
:1022700000686F4908606E206E49C870084600F01B
:1022800055FD3AE0694800686E280AD95F48006841
:10229000674908606E206749C870084600F046FD2F
:1022A0002BE06248006864280AD9584800686049F1
:1022B000086064205F49C870084600F037FD1CE0E4
:1022C0005A4800685A280AD9504800685849086096
:1022D0005A205849C870084600F028FD0DE05348C0
:1022E0000068502809D949480068514908605020C1
:1022F0005049C870084600F019FD4C484068322823
:1023000043D94D4800684049096808443F49096875
:1023100088423AD24548406878280AD93B48006844
:102320004549086064204549C870084600F0FEFC35
:102330002BE03E4840686E280AD9344800683E4980
:10234000086064203D49C870084600F0EFFC1CE0BE
:102350003648406864280AD92C4800683649086025
:1023600064203649C870084600F0E0FC0DE02F48B4
:1023700040685A2809D9254800682F4908605A2022
:102380002E49C870084600F0D1FC2D48006878B18D
:102390002C4800681C49096808441C49096888429F
:1023A00006D21A48006827490860274800F0BEFC9A
:1023B0002648006878B1264800681349096808442F
:1023C00012490968884206D210480068204908600E
:1023D000204800F0ABFC2048006878B11F48006836
:1023E00009490968084409490968884206D207482A
:1023F00000681A4908601A4800F098FC10BD0000F7
:10240000000000202C0000202800002024000020D4
:102410005000002004000020300000205400002064
:102420000800002034000020580000207000002028
:10243000380000205C0000204400002068000020DC
:10244000100000203C00002060000020140000204C
:1024500040000020640000201C00002048000020F4
:102460006C00002000BFFEE77047704710B50121E7
:102470001948FEF7CDFD1949086002211648FEF7FC
:10248000C7FD1749086010211348FEF7C1FD154923
:10249000086040211048FEF7BBFD13490860802109
:1024A0000D48FEF7B5FD114908604FF480710A48E8
:1024B000FEF7AEFD0E4908604FF400710648FEF7C6
:1024C000A7FD0C4908604FF480610348FEF7A0FDAA
:1024D0000949086010BD0000000002400000002013
:1024E00004000020080000200C0000201000002044
:1024F00014000020180000201C000020704710B5B8
:10250000FEF7A4FD10BD000000B593B0302107A870
:10251000FDF796FE142102A8FDF792FE00BF0020F1
:1025200001902448006840F0805022490860084625
:10253000006800F08050019000BF00BF00BF002085
:1025400001901D48006840F440401B49086008465F
:10255000006800F44040019000BF00BF02200790D7
:1025600001200A9010200B9002200D9000210E9166
:1025700008210F91642110910221119104211291DF
:1025800007A8FEF779FF08B1FEF72AF80F2002909E
:1025900002200390002004904FF48050059000200A
:1025A0000690032102A8FEF727FE08B1FEF718F8EF
:1025B00013B000BD4038024000700040054800687C
:1025C00040F47000034908604FF000600149803911
:1025D0000860704788ED00E010B506480068401CB0
:1025E000044908600846006800F098FB0248FFF7BD
:1025F000C9FA10BD200000203801002010B5026883
:10260000204B98420BD0B0F1804F08D01E4B98421F
:1026100005D01E4B984202D01D4B984203D122F0A8
:1026200070024B681A43174B984214D0B0F1804F98
:1026300011D0154B98420ED0144B98420BD0144B2E
:10264000984208D0134B984205D0134B984202D0C1
:10265000124B984203D122F44072CB681A4322F005
:1026600080034C6943EA040202608B68C3620B6812
:102670008362044B984201D10B69036301234361D8
:1026800010BD0000000001400004004000080040B0
:10269000000C00400040014000440140004801405F
:1026A00030B50C46816821F47F4142EA0325254379
:1026B0002943816030BD0A46816821F0700142F0F3
:1026C000070319438160704730B50B461446026A10
:1026D000056A25F001050562816921F0F00141EAF2
:1026E000041122F00A021A438161026230BD30B542
:1026F0000B461446056A25F0100505628169026AD9
:1027000021F4704141EA043122F0A00242EA0312AE
:102710008161026230BD70B50546AC6B0020E0857A
:10272000E0842046FFF7FDFA70BD0168C96821F416
:1027300090710268D1600168496921F00101026865
:102740005161202180F83A10704710B50446206886
:10275000C06820F040002168C860202084F839005B
:102760002046FFF73CFC002010BD70B5044694F8ED
:102770003A0022284AD1A068B0F5805F13D1A56A3B
:10278000206940B920684068C0F308002880A06A2A
:10279000801CA06219E020684068C0B22880A06A4E
:1027A000401CA06211E0206938B920684068C1B2BD
:1027B000A26A501CA062117007E02068406800F017
:1027C0007F01A26A501CA0621170E08D401E80B291
:1027D000E085C8B92068C06820F020002168C86082
:1027E0002068C06820F480702168C8602068406953
:1027F00020F0010021684861202084F83A0020463A
:10280000FFF7C0FB002070BD0020FCE70220FAE7C4
:102810002DE9F84F04462068006920F44050E16833
:102820000843216808612169A06808436169084379
:10283000E169084300902068C06849F20C61884350
:10284000009908432168C8602068406920F44070FE
:10285000A169084321684861E069B0F5004F75D16E
:10286000E3492068884203D0E249206888426FD15A
:10287000FEF79AFD814602206168A0FB01510B46DC
:102880001920A9FB00712A463846FDF7A1FC6421F6
:10289000B0FBF1F04FEA001A02206168A0FB015181
:1028A0000B461920A9FB00712A463846FDF790FC1B
:1028B000074602206168A0FB01510B461920A9FBC5
:1028C00000B12A465846FDF783FC6421B0FBF1F0C5
:1028D00000EBC00101EB0010A7EB8000322101EBFF
:1028E000C0006421B0FBF1F000F0F8000AEB400AF0
:1028F00002206168A0FB01510B461920A9FB007161
:102900002A463846FDF764FC074602206168A0FBB2
:1029100001510B461920A9FB00B12A465846FDF784
:1029200057FC6421B0FBF1F000EBC00101EB00109B
:10293000A7EB8000322101EBC0006421B0FBF1F075
:1029400000F007005044216888604FE16EE0FFE727
:10295000FEF71AFD814602206168A0FB01510B467B
:102960001920A9FB00712A463846FDF731FC642185
:10297000B0FBF1F04FEA001A02206168A0FB0151A0
:102980000B461920A9FB00712A463846FDF720FCAA
:10299000074602206168A0FB01510B461920A9FBE4
:1029A00000B12A465846FDF713FC6421B0FBF1F054
:1029B00000EBC00101EB0010A7EB8000322101EB1E
:1029C000C0006421B0FBF1F000F0F8000AEB400A0F
:1029D00002206168A0FB01510B461920A9FB007180
:1029E0002A463846FDF7F4FB074602206168A0FB43
:1029F000015003461920A9FB00B12A465846FDF7AD
:102A0000E7FB6421B0FBF1F000EBC00101EB00102B
:102A1000A7EB8000322101EBC0006421B0FBF1F094
:102A200000F00700504421688860DFE070492068AA
:102A3000884203D06F49206888426BD1FEF7B4FC0E
:102A4000814604206168A0FB01510B461920A9FBB7
:102A500000712A463846FDF7BBFB824604206168B8
:102A6000A0FB01510B461920A9FB00712A463846EC
:102A7000FDF7AEFB6421B0FBF1F000EBC00101EB10
:102A80000010AAEB8000322101EB00106421B0FBA2
:102A9000F1F000F0F00A04206168A0FB0150034649
:102AA0001920A9FB00712A463846FDF791FB6421E5
:102AB000B0FBF1F00AEB001A04206168A0FB0151A1
:102AC0000B461920A9FB00712A463846FDF780FB0A
:102AD000074604206168A0FB015003461920A9FBAA
:102AE00000B12A465846FDF773FB6421B0FBF1F0B4
:102AF00000EBC00101EB0010A7EB8000322101EBDD
:102B000000106421B0FBF1F000F00F005044216888
:102B100088606BE0FEF738FC814604206168A0FB0A
:102B2000015003461920A9FB00712A463846FDF7DB
:102B30004FFB824604206168A0FB01500346192028
:102B4000A9FB00712A463846FDF742FB6421B0FB21
:102B5000F1F000EBC00101EB0010AAEB8000322184
:102B600001EB00106421B0FBF1F000F0F00A04204A
:102B70006168A0FB015003461920A9FB00712A4699
:102B80003846FDF725FB6421B0FBF1F00AEB001A93
:102B900004206168A0FB017003461920A9FB0050C6
:102BA00001463A462846FDF713FB074604206168B4
:102BB000A0FB015003461920A9FB00B12A46584644
:102BC000FDF706FB6421B0FBF1F000EBC00101EB67
:102BD0000010A7EB8000322101EB00106421B0FB54
:102BE000F1F000F00F00504421688860BDE8F88FD4
:102BF0000010014000140140014691F839002128DD
:102C00002CD18868B0F5805F0FD10A6A1088C0F3B4
:102C100008000B685860086918B9086A801C0862C7
:102C200009E0086A401C086205E00B6A581C08624B
:102C300018780B685860C88C401E80B2C88458B998
:102C40000868C06820F080000B68D8600868C06819
:102C500040F040000B68D860002070470220FCE77D
:102C600010B50248FFF75EF810BD000078010020A3
:102C700000BFFEE702480068C0F302207047000072
:102C80000CED00E010B5002804DB0A07130E054A1E
:102C9000135406E00A07140E034A00F00F031B1F2B
:102CA000D45410BD00E400E018ED00E002E008C8D4
:102CB000121F08C1002AFAD170477047002001E0B6
:102CC00001C1121F002AFBD170470000FEF7CAF9AC
:102CD000FFF71AFCFFF7E6F9FFF7C8F9FFF782F9EB
:102CE000FFF726FAFFF75CFA0848FEF7B1FE02226A
:102CF00007490848FDF708FE07E020210648FEF7CF
:102D00008FF9FFF7B3FBFFF767FAF6E7380100200A
:102D10007800002090000020000002400A21B0FB53
:102D2000F1F1014A116070472400002010B50446FB
:102D3000042221460148FFF726F910BD7801002042
:102D4000000610160006101600000000000000002B
:102D50000102030406070809000000000102030441
:102D6000802D00080000002090000000AC2C00081E
:102D7000102E00089000002028050000BC2C000840
:102D80000000000000000000000000000000000043
:102D90000000000000000000000000000000000033
:102DA00000000000000000000F0000000000000014
:102DB0000000000000000000000000000000000013
:102DC00000000000000000000000000008804747ED
:102DD00008902478089041780890437808902678E5
:102DE000089045780890327808904D7808903C78A3
:102DF00000000000000000000000000000000000D3
:102E00000000000010000000010000000024F40099
:040000050800019955
:00000001FF
